{
  "_format": "hh-sol-artifact-1",
  "contractName": "LitVMFliperama",
  "sourceName": "contracts/LitVMFliperama.sol",
  "abi": [
    {
      "inputs": [],
      "stateMutability": "nonpayable",
      "type": "constructor"
    },
    {
      "anonymous": false,
      "inputs": [
        {
          "indexed": true,
          "internalType": "address",
          "name": "player",
          "type": "address"
        },
        {
          "indexed": false,
          "internalType": "string",
          "name": "nickname",
          "type": "string"
        }
      ],
      "name": "PlayerRegistered",
      "type": "event"
    },
    {
      "anonymous": false,
      "inputs": [
        {
          "indexed": true,
          "internalType": "address",
          "name": "player",
          "type": "address"
        },
        {
          "indexed": false,
          "internalType": "string",
          "name": "nickname",
          "type": "string"
        },
        {
          "indexed": false,
          "internalType": "uint256",
          "name": "score",
          "type": "uint256"
        },
        {
          "indexed": false,
          "internalType": "string",
          "name": "message",
          "type": "string"
        }
      ],
      "name": "ScoreSubmitted",
      "type": "event"
    },
    {
      "inputs": [],
      "name": "ENTRY_FEE",
      "outputs": [
        {
          "internalType": "uint256",
          "name": "",
          "type": "uint256"
        }
      ],
      "stateMutability": "view",
      "type": "function"
    },
    {
      "inputs": [],
      "name": "getLeaderboard",
      "outputs": [
        {
          "components": [
            {
              "internalType": "string",
              "name": "nickname",
              "type": "string"
            },
            {
              "internalType": "uint256",
              "name": "score",
              "type": "uint256"
            },
            {
              "internalType": "address",
              "name": "player",
              "type": "address"
            },
            {
              "internalType": "string",
              "name": "message",
              "type": "string"
            },
            {
              "internalType": "uint256",
              "name": "timestamp",
              "type": "uint256"
            }
          ],
          "internalType": "struct LitVMFliperama.Record[]",
          "name": "",
          "type": "tuple[]"
        }
      ],
      "stateMutability": "view",
      "type": "function"
    },
    {
      "inputs": [
        {
          "internalType": "uint256",
          "name": "",
          "type": "uint256"
        }
      ],
      "name": "globalLeaderboard",
      "outputs": [
        {
          "internalType": "string",
          "name": "nickname",
          "type": "string"
        },
        {
          "internalType": "uint256",
          "name": "score",
          "type": "uint256"
        },
        {
          "internalType": "address",
          "name": "player",
          "type": "address"
        },
        {
          "internalType": "string",
          "name": "message",
          "type": "string"
        },
        {
          "internalType": "uint256",
          "name": "timestamp",
          "type": "uint256"
        }
      ],
      "stateMutability": "view",
      "type": "function"
    },
    {
      "inputs": [],
      "name": "owner",
      "outputs": [
        {
          "internalType": "address",
          "name": "",
          "type": "address"
        }
      ],
      "stateMutability": "view",
      "type": "function"
    },
    {
      "inputs": [
        {
          "internalType": "address",
          "name": "",
          "type": "address"
        }
      ],
      "name": "playerNicknames",
      "outputs": [
        {
          "internalType": "string",
          "name": "",
          "type": "string"
        }
      ],
      "stateMutability": "view",
      "type": "function"
    },
    {
      "inputs": [
        {
          "internalType": "string",
          "name": "_nickname",
          "type": "string"
        }
      ],
      "name": "registerPlayer",
      "outputs": [],
      "stateMutability": "payable",
      "type": "function"
    },
    {
      "inputs": [
        {
          "internalType": "uint256",
          "name": "_score",
          "type": "uint256"
        },
        {
          "internalType": "string",
          "name": "_message",
          "type": "string"
        }
      ],
      "name": "submitScore",
      "outputs": [],
      "stateMutability": "nonpayable",
      "type": "function"
    },
    {
      "inputs": [],
      "name": "withdrawFees",
      "outputs": [],
      "stateMutability": "nonpayable",
      "type": "function"
    }
  ],
  "bytecode": "0x608060405234801561001057600080fd5b5033600260006101000a81548173ffffffffffffffffffffffffffffffffffffffff021916908373ffffffffffffffffffffffffffffffffffffffff1602179055506117bd806100616000396000f3fe60806040526004361061007b5760003560e01c80638da5cb5b1161004e5780638da5cb5b14610140578063b3446f851461016b578063bc2256dc14610187578063f6d361cc146101b05761007b565b8063084aa66314610080578063330ab49a146100bd578063476343ee146100fe5780636d763a6e14610115575b600080fd5b34801561008c57600080fd5b506100a760048036038101906100a29190610b98565b6101db565b6040516100b49190610c55565b60405180910390f35b3480156100c957600080fd5b506100e460048036038101906100df9190610cad565b61027b565b6040516100f5959493929190610cf8565b60405180910390f35b34801561010a57600080fd5b506101136103f1565b005b34801561012157600080fd5b5061012a6104ec565b6040516101379190610f00565b60405180910390f35b34801561014c57600080fd5b506101556106d9565b6040516101629190610f22565b60405180910390f35b61018560048036038101906101809190610fa2565b6106ff565b005b34801561019357600080fd5b506101ae60048036038101906101a99190610fef565b610840565b005b3480156101bc57600080fd5b506101c5610b26565b6040516101d2919061104f565b60405180910390f35b600160205280600052604060002060009150905080546101fa90611099565b80601f016020809104026020016040519081016040528092919081815260200182805461022690611099565b80156102735780601f1061024857610100808354040283529160200191610273565b820191906000526020600020905b81548152906001019060200180831161025657829003601f168201915b505050505081565b6000818154811061028b57600080fd5b90600052602060002090600502016000915090508060000180546102ae90611099565b80601f01602080910402602001604051908101604052809291908181526020018280546102da90611099565b80156103275780601f106102fc57610100808354040283529160200191610327565b820191906000526020600020905b81548152906001019060200180831161030a57829003601f168201915b5050505050908060010154908060020160009054906101000a900473ffffffffffffffffffffffffffffffffffffffff169080600301805461036890611099565b80601f016020809104026020016040519081016040528092919081815260200182805461039490611099565b80156103e15780601f106103b6576101008083540402835291602001916103e1565b820191906000526020600020905b8154815290600101906020018083116103c457829003601f168201915b5050505050908060040154905085565b600260009054906101000a900473ffffffffffffffffffffffffffffffffffffffff1673ffffffffffffffffffffffffffffffffffffffff163373ffffffffffffffffffffffffffffffffffffffff1614610481576040517f08c379a000000000000000000000000000000000000000000000000000000000815260040161047890611116565b60405180910390fd5b600260009054906101000a900473ffffffffffffffffffffffffffffffffffffffff1673ffffffffffffffffffffffffffffffffffffffff166108fc479081150290604051600060405180830381858888f193505050501580156104e9573d6000803e3d6000fd5b50565b60606000805480602002602001604051908101604052809291908181526020016000905b828210156106d057838290600052602060002090600502016040518060a001604052908160008201805461054390611099565b80601f016020809104026020016040519081016040528092919081815260200182805461056f90611099565b80156105bc5780601f10610591576101008083540402835291602001916105bc565b820191906000526020600020905b81548152906001019060200180831161059f57829003601f168201915b50505050508152602001600182015481526020016002820160009054906101000a900473ffffffffffffffffffffffffffffffffffffffff1673ffffffffffffffffffffffffffffffffffffffff1673ffffffffffffffffffffffffffffffffffffffff16815260200160038201805461063590611099565b80601f016020809104026020016040519081016040528092919081815260200182805461066190611099565b80156106ae5780601f10610683576101008083540402835291602001916106ae565b820191906000526020600020905b81548152906001019060200180831161069157829003601f168201915b5050505050815260200160048201548152505081526020019060010190610510565b50505050905090565b600260009054906101000a900473ffffffffffffffffffffffffffffffffffffffff1681565b655af3107a40003414610747576040517f08c379a000000000000000000000000000000000000000000000000000000000815260040161073e906111a8565b60405180910390fd5b60008282905011801561075e5750600f8282905011155b61079d576040517f08c379a000000000000000000000000000000000000000000000000000000000815260040161079490611214565b60405180910390fd5b8181600160003373ffffffffffffffffffffffffffffffffffffffff1673ffffffffffffffffffffffffffffffffffffffff16815260200190815260200160002091826107eb92919061141a565b503373ffffffffffffffffffffffffffffffffffffffff167fe04d23b73ae3d3b27074da9719b5a4cd521395aaf86bfe7e374933ecb567731a8383604051610834929190611526565b60405180910390a25050565b6000600160003373ffffffffffffffffffffffffffffffffffffffff1673ffffffffffffffffffffffffffffffffffffffff168152602001908152602001600020805461088c90611099565b80601f01602080910402602001604051908101604052809291908181526020018280546108b890611099565b80156109055780601f106108da57610100808354040283529160200191610905565b820191906000526020600020905b8154815290600101906020018083116108e857829003601f168201915b505050505090506000815111610950576040517f08c379a0000000000000000000000000000000000000000000000000000000008152600401610947906115bc565b60405180910390fd5b6032838390501115610997576040517f08c379a000000000000000000000000000000000000000000000000000000000815260040161098e9061164e565b60405180910390fd5b60006040518060a001604052808381526020018681526020013373ffffffffffffffffffffffffffffffffffffffff16815260200185858080601f016020809104026020016040519081016040528093929190818152602001838380828437600081840152601f19601f8201169050808301925050505050505081526020014281525090806001815401808255809150506001900390600052602060002090600502016000909190919091506000820151816000019081610a58919061166e565b506020820151816001015560408201518160020160006101000a81548173ffffffffffffffffffffffffffffffffffffffff021916908373ffffffffffffffffffffffffffffffffffffffff1602179055506060820151816003019081610abf919061166e565b506080820151816004015550503373ffffffffffffffffffffffffffffffffffffffff167f563bca19ff3abe296d1537b770fbbd7029209ede3125b21b5b6b8d641cbdbd5d82868686604051610b189493929190611740565b60405180910390a250505050565b655af3107a400081565b600080fd5b600080fd5b600073ffffffffffffffffffffffffffffffffffffffff82169050919050565b6000610b6582610b3a565b9050919050565b610b7581610b5a565b8114610b8057600080fd5b50565b600081359050610b9281610b6c565b92915050565b600060208284031215610bae57610bad610b30565b5b6000610bbc84828501610b83565b91505092915050565b600081519050919050565b600082825260208201905092915050565b60005b83811015610bff578082015181840152602081019050610be4565b60008484015250505050565b6000601f19601f8301169050919050565b6000610c2782610bc5565b610c318185610bd0565b9350610c41818560208601610be1565b610c4a81610c0b565b840191505092915050565b60006020820190508181036000830152610c6f8184610c1c565b905092915050565b6000819050919050565b610c8a81610c77565b8114610c9557600080fd5b50565b600081359050610ca781610c81565b92915050565b600060208284031215610cc357610cc2610b30565b5b6000610cd184828501610c98565b91505092915050565b610ce381610c77565b82525050565b610cf281610b5a565b82525050565b600060a0820190508181036000830152610d128188610c1c565b9050610d216020830187610cda565b610d2e6040830186610ce9565b8181036060830152610d408185610c1c565b9050610d4f6080830184610cda565b9695505050505050565b600081519050919050565b600082825260208201905092915050565b6000819050602082019050919050565b600082825260208201905092915050565b6000610da182610bc5565b610dab8185610d85565b9350610dbb818560208601610be1565b610dc481610c0b565b840191505092915050565b610dd881610c77565b82525050565b610de781610b5a565b82525050565b600060a0830160008301518482036000860152610e0a8282610d96565b9150506020830151610e1f6020860182610dcf565b506040830151610e326040860182610dde565b5060608301518482036060860152610e4a8282610d96565b9150506080830151610e5f6080860182610dcf565b508091505092915050565b6000610e768383610ded565b905092915050565b6000602082019050919050565b6000610e9682610d59565b610ea08185610d64565b935083602082028501610eb285610d75565b8060005b85811015610eee5784840389528151610ecf8582610e6a565b9450610eda83610e7e565b925060208a01995050600181019050610eb6565b50829750879550505050505092915050565b60006020820190508181036000830152610f1a8184610e8b565b905092915050565b6000602082019050610f376000830184610ce9565b92915050565b600080fd5b600080fd5b600080fd5b60008083601f840112610f6257610f61610f3d565b5b8235905067ffffffffffffffff811115610f7f57610f7e610f42565b5b602083019150836001820283011115610f9b57610f9a610f47565b5b9250929050565b60008060208385031215610fb957610fb8610b30565b5b600083013567ffffffffffffffff811115610fd757610fd6610b35565b5b610fe385828601610f4c565b92509250509250929050565b60008060006040848603121561100857611007610b30565b5b600061101686828701610c98565b935050602084013567ffffffffffffffff81111561103757611036610b35565b5b61104386828701610f4c565b92509250509250925092565b60006020820190506110646000830184610cda565b92915050565b7f4e487b7100000000000000000000000000000000000000000000000000000000600052602260045260246000fd5b600060028204905060018216806110b157607f821691505b6020821081036110c4576110c361106a565b5b50919050565b7f4f6e6c7920636f6d6d616e642063656e7465722063616e207769746864726177600082015250565b6000611100602083610bd0565b915061110b826110ca565b602082019050919050565b6000602082019050818103600083015261112f816110f3565b9050919050565b7f52657175697265643a2045786163746c7920302e30303031207a6b4c5443206560008201527f6e74727920666565000000000000000000000000000000000000000000000000602082015250565b6000611192602883610bd0565b915061119d82611136565b604082019050919050565b600060208201905081810360008301526111c181611185565b9050919050565b7f4e69636b6e616d65206d75737420626520312d31352063686172730000000000600082015250565b60006111fe601b83610bd0565b9150611209826111c8565b602082019050919050565b6000602082019050818103600083015261122d816111f1565b9050919050565b600082905092915050565b7f4e487b7100000000000000000000000000000000000000000000000000000000600052604160045260246000fd5b60008190508160005260206000209050919050565b60006020601f8301049050919050565b600082821b905092915050565b6000600883026112d07fffffffffffffffffffffffffffffffffffffffffffffffffffffffffffffffff82611293565b6112da8683611293565b95508019841693508086168417925050509392505050565b6000819050919050565b600061131761131261130d84610c77565b6112f2565b610c77565b9050919050565b6000819050919050565b611331836112fc565b61134561133d8261131e565b8484546112a0565b825550505050565b600090565b61135a61134d565b611365818484611328565b505050565b5b818110156113895761137e600082611352565b60018101905061136b565b5050565b601f8211156113ce5761139f8161126e565b6113a884611283565b810160208510156113b7578190505b6113cb6113c385611283565b83018261136a565b50505b505050565b600082821c905092915050565b60006113f1600019846008026113d3565b1980831691505092915050565b600061140a83836113e0565b9150826002028217905092915050565b6114248383611234565b67ffffffffffffffff81111561143d5761143c61123f565b5b6114478254611099565b61145282828561138d565b6000601f831160018114611481576000841561146f578287013590505b61147985826113fe565b8655506114e1565b601f19841661148f8661126e565b60005b828110156114b757848901358255600182019150602085019450602081019050611492565b868310156114d457848901356114d0601f8916826113e0565b8355505b6001600288020188555050505b50505050505050565b82818337600083830152505050565b60006115058385610bd0565b93506115128385846114ea565b61151b83610c0b565b840190509392505050565b600060208201905081810360008301526115418184866114f9565b90509392505050565b7f4d75737420726567697374657220796f75722070696c6f74206e69636b6e616d60008201527f6520666972737400000000000000000000000000000000000000000000000000602082015250565b60006115a6602783610bd0565b91506115b18261154a565b604082019050919050565b600060208201905081810360008301526115d581611599565b9050919050565b7f4d657373616765206d6178206c656e677468206973203530206368617261637460008201527f6572730000000000000000000000000000000000000000000000000000000000602082015250565b6000611638602383610bd0565b9150611643826115dc565b604082019050919050565b600060208201905081810360008301526116678161162b565b9050919050565b61167782610bc5565b67ffffffffffffffff8111156116905761168f61123f565b5b61169a8254611099565b6116a582828561138d565b600060209050601f8311600181146116d857600084156116c6578287015190505b6116d085826113fe565b865550611738565b601f1984166116e68661126e565b60005b8281101561170e578489015182556001820191506020850194506020810190506116e9565b8683101561172b5784890151611727601f8916826113e0565b8355505b6001600288020188555050505b505050505050565b6000606082019050818103600083015261175a8187610c1c565b90506117696020830186610cda565b818103604083015261177c8184866114f9565b90509594505050505056fea26469706673582212203e3cb92a35796756ecf3f6b33aaa8a872af3a675bd57c37b68b6d84630ca7d5f64736f6c63430008140033",
  "linkReferences": {},
  "deployedLinkReferences": {}
}